:020000040800F2
:10000000D80600208901000891010008930100082A
:100010009501000897010008990100080000000000
:100020000000000000000000000000009B0100082C
:100030009D010008000000009F010008A1010008C8
:10004000A3010008A3010008A3010008A301000800
:10005000A3010008A3010008A3010008A3010008F0
:10006000A3010008A3010008A301000891020008F1
:10007000B1020008D1020008F102000811030008D3
:100080003103000851030008A3010008A301000880
:10009000A3010008A3010008A3010008A3010008B0
:1000A000A3010008A3010008A3010008A3010008A0
:1000B00081080008A3010008A3010008A3010008AB
:1000C000A3010008A3010008A3010008A301000880
:1000D00059060008190E0008A3010008A301000832
:1000E000A3010008A3010008A301000800F002F822
:1000F00000F03AF80AA090E8000C82448344AAF188
:100100000107DA4501D100F02FF8AFF2090EBAE885
:100110000F0013F0010F18BFFB1A43F0010318473B
:100120005C1400007C140000103A24BF78C878C129
:10013000FAD8520724BF30C830C144BF04680C60ED
:10014000704700000023002400250026103A28BF35
:1001500078C1FBD8520728BF30C148BF0B60704739
:100160001FB51FBD10B510BD00F058F81146FFF7C0
:10017000F7FF01F00DF800F076F803B4FFF7F2FF97
:1001800003BC00F07DF8000009488047094800479B
:10019000FEE7FEE7FEE7FEE7FEE7FEE7FEE7FEE737
:1001A000FEE7FEE704480549054A064B7047000094
:1001B00021080008ED000008D8000020D806002023
:1001C000D8020020D80200204FF0000200B51346EC
:1001D00094469646203922BFA0E80C50A0E80C5067
:1001E000B1F12001BFF4F7AF090728BFA0E80C5018
:1001F00048BF0CC05DF804EB890028BF40F8042B11
:1002000008BF704748BF20F8022B11F0804F18BF7D
:1002100000F8012B7047704770477047754600F033
:100220002BF8AE4605006946534620F00700854688
:1002300018B020B5FFF7B6FFBDE820404FF000062C
:100240004FF000074FF000084FF0000B21F00701BE
:10025000AC46ACE8C009ACE8C009ACE8C009ACE801
:10026000C0098D46704710B50446AFF300802046A4
:10027000BDE81040FFF781BF0048704778000020BC
:1002800001491820ABBEFEE7260002007047704708
:1002900010B50548006800F00F040348446020468C
:1002A000FFF7F5FF10BD000000000240704700009E
:1002B00010B505480068C0F30314200102494860E6
:1002C0002046FFF7F3FF10BD00000240704700001A
:1002D00010B505480068C0F30324200202494860B5
:1002E0002046FFF7F3FF10BD0000024070470000FA
:1002F00010B505480068C0F3033420030249486084
:100300002046FFF7F3FF10BD0000024070470000D9
:1003100010B505480068C0F3034420040249486052
:100320002046FFF7F3FF10BD0000024070470000B9
:1003300010B505480068C0F3035420050249486021
:100340002046FFF7F3FF10BD000002407047000099
:1003500010B505480068C0F30364200602494860F0
:100360002046FFF7F3FF10BD000002402DE9F041E9
:10037000024600250026002000230024002791F8D3
:1003800003C00CF00F0591F803C00CF0100CBCF189
:10039000000F03D091F802C04CEA050591F800C0A7
:1003A000BCF1000F31D0146800202BE04FF0010C9D
:1003B0000CFA00F3B1F800C00CEA03069E4220D10B
:1003C00083004FF00F0C0CFA03F7BC4305FA03FC53
:1003D0004CEA040491F803C0BCF1280F06D14FF099
:1003E000010C0CFA00FCC2F814C00AE091F803C03A
:1003F000BCF1480F05D14FF0010C0CFA00FCC2F81B
:1004000010C0401C0828D1D31460B1F800C0BCF162
:10041000FF0F34DD546800202EE000F1080C4FF08F
:10042000010808FA0CF3B1F800C00CEA03069E427A
:1004300021D183004FF00F0C0CFA03F7BC4305FAEF
:1004400003FC4CEA040491F803C0BCF1280F05D169
:1004500000F1080C08FA0CF8C2F8148091F803C0F7
:10046000BCF1480F07D100F1080C4FF0010808FA61
:100470000CF8C2F81080401C0828CED35460BDE8A8
:10048000F08102460020D3680B400BB1012000E050
:100490000020704741617047016170470AB10161F6
:1004A00000E041617047000008B50121082000F01C
:1004B00059F84FF48050ADF8000002208DF802008A
:1004C00010208DF8030069460148FFF74FFF08BD73
:1004D000000C014070B5002100230F22C47804B342
:1004E000154C246804F4E064C4F5E064210AC1F109
:1004F0000403CA40447804FA03F184781440214389
:1005000009010E4C0678A155047804F01F0501245A
:10051000AC4005786D11AD0005F1E025C5F800414E
:1005200009E0047804F01F050124AC40044D06786E
:10053000761145F8264070BD0CED00E000E400E0C7
:1005400080E100E029B1064AD2690243044BDA6136
:1005500004E0034AD2698243014BDA61704700002C
:100560000010024029B1064A92690243044B9A6185
:1005700004E0034A92698243014B9A61704700008C
:100580000010024030B500210022002400232D4D30
:100590006D6805F00C0121B1042905D0082923D18B
:1005A00005E0294D056022E0274D05601FE0254D3F
:1005B0006D6805F47012234D6D6805F480340225D2
:1005C00005EB92421CB9214D554305600BE01D4DD2
:1005D0006D6805F400351DB11C4D5543056002E002
:1005E000194D5543056002E0174D056000BF00BF7F
:1005F000144D6D6805F0F0010909154D6B5C056837
:10060000DD4045600F4D6D6805F4E061090A104D4D
:100610006B5C4568DD4085600A4D6D6805F460518E
:10062000C90A0B4D6B5C4568DD40C560054D6D68C2
:1006300005F44041890B074D6B5CC568B5FBF3F5CC
:10064000056130BD0010024000127A0000093D0033
:10065000440000205400002010B5134800F048F872
:10066000124908704FF400411148FFF70AFF0128B2
:1006700008D1C1030E48FFF70DFF00210A4800F022
:100680003AF810E0242000280BDB00F01F020121C3
:100690009140084A430942F82310BFF34F8FBFF33C
:1006A0006F8F00BF00BF10BD003800400400002065
:1006B000000C014080E100E021B1028842F04002DC
:1006C000028004E002884FF6BF731A400280704730
:1006D00030B5002400230C110125A540ABB21AB19E
:1006E00085881D43858002E085889D43858030BDD7
:1006F0000146888970478181704710B500220288C1
:1007000002F441520B884C8823438C882343CC88C5
:1007100023430C8923434C8923438C892343CC896D
:1007200023431A430280838B4FF2FF742340838359
:100730000B8A038210BD10B500F002F810BD000056
:100740000CB50020019000903348006840F48030E0
:100750003149086000BF3048006800F40030009064
:100760000198401C0190009818B90198B0F5A06F4D
:10077000F1D12948006800F4003010B10120009048
:1007800001E0002000900098012843D12348006830
:1007900040F01000214908600846006820F003007E
:1007A00008600846006840F0020008601A48406887
:1007B000194948600846406848600846406840F467
:1007C000806048600846406820F47C104860084615
:1007D000406840F4E81048600846006840F08070C7
:1007E000086000BF0C48006800F000700028F9D0D5
:1007F0000948406820F003000749486008464068FF
:1008000040F00200486000BF0348406800F00C0060
:100810000828F9D10CBD0000001002400020024061
:1008200010B51348006840F00100114908600846FF
:100830004068104908400E494860084600680E4963
:1008400008400B4908600846006820F480200860D2
:100850000846406820F4FE0048604FF41F0088609E
:10086000FFF769FF4FF000600449086010BD000009
:10087000001002400000FFF8FFFFF6FE08ED00E068
:1008800010B50121880700F0FEF830B101200349BE
:1008900008600121800700F0E7F810BD000000208B
:1008A0000EB501210846FFF74DFE44F25060ADF849
:1008B00000000020ADF802000420ADF80400002084
:1008C000ADF806008DF8080069464FF0804000F052
:1008D00051FA0121880700F0CAF801221146900759
:1008E00000F0E2F81C2000F0D2FB0EBD00B589B08C
:1008F00001210420FFF736FE01210420FFF732FE1C
:1009000001210820FFF72EFE01210846FFF72AFEED
:100910004020ADF8200018208DF8230002208DF82B
:10092000220008A94D48FFF721FD8020ADF82000E6
:1009300018208DF8230002208DF8220008A94748CE
:10094000FFF714FD0120ADF8200018208DF82300DA
:1009500002208DF8220008A94148FFF707FD022078
:10096000ADF8200018208DF8230002208DF8220019
:1009700008A93B48FFF7FAFC01210220FFF7E2FD3E
:100980000020ADF8160040F2CF20ADF8140040F280
:10099000F310ADF818000020ADF81A008DF81C0017
:1009A00005A9304800F0E6F901212E4800F05FF873
:1009B0006020ADF8040040F2E730ADF80A000120F5
:1009C000ADF806000020ADF80C0001A9254800F0A4
:1009D00075F80821234800F0BDF86020ADF8040048
:1009E00040F2E730ADF80A000120ADF80600002023
:1009F000ADF80C0001A91B4800F0B6F80821194811
:100A000000F004F96020ADF8040040F2E730ADF8E2
:100A10000A000120ADF806000020ADF80C0001A985
:100A2000104800F001F908210E4800F04DF960204F
:100A3000ADF8040040F2E730ADF80A000120ADF84F
:100A400006000020ADF80C0001A9064800F046F9A8
:100A50000821044800F080F909B000BD00080140F9
:100A6000000C014000040040CA430282704721B1DB
:100A7000028842F00102028004E002884FF6FE7311
:100A80001A400280704730B502460020002300243F
:100A9000158A05EA0103958905EA010413B10CB131
:100AA000012000E0002030BD1AB183890B4383810F
:100AB00002E083898B4383817047000070B5002476
:100AC00000220023058C4FF6FE7635400584028C0B
:100AD0008388048B4FF68F752C40B51E2C400D88F3
:100AE0002C43751E2A400D892A434D882A43144DF4
:100AF000A8420BD0134DA84208D0134DA84205D0F0
:100B0000124DA84202D0124DA84213D14FF6F775EC
:100B10002A404D892A434FF6FB752A408D882A4387
:100B20004FF6FF652B404FF6FF552B408D892B4329
:100B3000CD892B4383800483CD888586028470BD54
:100B4000002C0140003401400040014000440140BD
:100B5000004801400A460021018B4FF6F773194007
:100B6000114301837047000070B500240022002368
:100B7000058C4FF6EF7635400584028C8388048B14
:100B800048F6FF752C404FF6FF452C400D884FF678
:100B9000FF7606EA05252C434FF6DF752A400D89BE
:100BA00006EA05152A434D8806EA05152A43154D20
:100BB000A84202D0144DA8421DD14FF67F752A409D
:100BC0004D894FF6FF7606EA05152A434FF6BF75A5
:100BD0002A408D8806EA05152A434FF6FF352B403B
:100BE0004FF2FF752B408D8906EA85052B43CD8991
:100BF00006EA85052B4383800483CD88058702841C
:100C000070BD0000002C0140003401400A46002164
:100C1000018B4FF2FF7319404FF6FF7303EA022373
:100C2000194301837047000070B50024002200239F
:100C3000058C4FF6FF6635400584028C8388848BD3
:100C40004FF68F752C404FF6FC752C400D882C43C9
:100C50004FF6FF552A400D894FF6FF7606EA052527
:100C60002A434D8806EA05252A43154DA84202D09D
:100C7000144DA8421DD14FF2FF752A404D894FF601
:100C8000FF7606EA05252A434FF6FF352A408D8870
:100C900006EA05252A434EF6FF752B404DF6FF75F3
:100CA0002B408D8906EA05152B43CD8906EA0515EB
:100CB0002B4383808483CD888587028470BD0000A8
:100CC000002C0140003401400A460021818B4FF680
:100CD000F7731940114381837047000070B50022FB
:100CE00000230024058C4EF6FF7635400584038CE6
:100CF0008488828B48F6FF752A404FF6FF452A40CC
:100D00000D884FF6FF7606EA05252A434DF6FF7556
:100D10002B400D8906EA05352B434D8806EA05353B
:100D20002B430B4DA84202D00A4DA84208D14BF6E6
:100D3000FF752C408D894FF6FF7606EA85152C430A
:100D400084808283CD88A0F84050038470BD000069
:100D5000002C0140003401400A460021818B4FF2F3
:100D6000FF7319404FF6FF7303EA0223194381838F
:100D700070470000002202881D4B98420ED01D4B88
:100D800098420BD0B0F1804F08D01B4B984205D051
:100D90001A4B984202D01A4B984204D14FF68F73E7
:100DA0001A404B881A43174B984207D0164B98426B
:100DB00004D04FF6FF431A40CB881A4302808B8839
:100DC00083850B8803850A4B98420BD0094B9842C8
:100DD00008D00E4B984205D00D4B984202D00D4BD7
:100DE000984201D10B7A0386012383827047000069
:100DF000002C014000340140000400400008004085
:100E0000000C004000100040001400400040014071
:100E1000004401400048014010B540F22551084807
:100E200000F074F850B1064800F02CF9054908703C
:100E300001200549087000200449087010BD000019
:100E40000038014010000020130000201200002094
:100E500000B587B0012144F20400FFF783FB4FF493
:100E60000070ADF8180003208DF81A0018208DF8D6
:100E70001B0006A91D48FFF779FA4FF48060ADF812
:100E8000180004208DF81B0006A91848FFF76EFA19
:100E900025208DF8040003208DF805008DF806004C
:100EA00001208DF8070001A8FFF714FB4FF416503E
:100EB00002900020ADF80C00ADF80E00ADF8100067
:100EC000ADF814000C20ADF8120002A9084800F09B
:100ED0006DF8012240F22551054800F041F801214A
:100EE000034800F007F807B000BD0000000801400B
:100EF0000038014021B1828942F40052828104E02D
:100F000082894DF6FF731A408281704770B50246A0
:100F1000002400230025002040F66A16B14200D1CB
:100F200000BFC1F3421501F01F03012606FA03F3C7
:100F3000012D02D19689334006E0022D02D1168A96
:100F4000334001E0968A33400C12012606FA04F47D
:100F50001688344013B10CB1012000E0002070BDB0
:100F6000F0B50346002400260025002040F66A174D
:100F7000B94200D100BF1846C1F3421401F01F0668
:100F8000012707FA06F5012C01D10C3004E0022CF0
:100F900001D1103000E014301AB107682F43076008
:100FA00002E00768AF430760F0BD00002DE9F0479D
:100FB00086B005460E460024A24600BFA146002783
:100FC000B08900B100BF2F462C8A4CF6FF70044058
:100FD000F08804432C82AC894EF6F3100440B088AC
:100FE00031890843718908430443AC81AC8A4FF6C8
:100FF000FF400440B0890443AC8201A8FFF7C2FA65
:101000001F48874202D1DDF810A001E0DDF80CA0F6
:10101000A88900F4004040B10AEBCA0000EB0A10B6
:1010200031684900B0FBF1F807E00AEBCA0000EBB9
:101030000A1031688900B0FBF1F86420B8FBF0F0C9
:1010400004012009642101FB1089A88900F40040F3
:1010500040B1322000EBC900B0FBF1F000F0070016
:10106000044308E0322000EB09106421B0FBF1F0EA
:1010700000F00F0004432C8106B0BDE8F0870000AB
:101080000038014001468888C0F3080070470028F6
:101090000DDB00BF00BF00F01F020121914042099B
:1010A000920002F1E022C2F8001100BF00BF7047B9
:1010B00001460020024605E051F82030012B00D106
:1010C000521C401C0828F7DB1046704702460121DD
:1010D000284B19801B1D19801B1D19801B1D198091
:1010E000012025490968012901D1244908682249BC
:1010F0004968012901D1224908681F4989680129E5
:1011000001D11F4908681C49C968012901D11C493E
:10111000086819490969012901D11A49086816495D
:10112000C969012902D1154909684842124949692A
:10113000012907D110498969012901D1002001E065
:101140004FF0FF3010490968082911DA0E49096883
:1011500000290DDD0D4909684143C1F15A01054BD4
:101160001B1D19800949098841435A311B1D1980EB
:101170007047000034040040580000201400002094
:10118000180000201C000020280000202000002063
:101190008EB0342101A8FFF717F8FFF785F9FFF7A4
:1011A000A5FBFFF77DFBFFF753FE00F0C9F89FE0BA
:1011B0005048006801283ED14F48FFF779FF4F495A
:1011C00008604F4804780125072006E004EA05017D
:1011D000494A42F820106410401E0028F6DA00F058
:1011E0009DF800F0FFF84748007810B101281CD1A5
:1011F00006E000224FF480514348FFF74FF915E015
:10120000012211034048FFF749F940480068401C9B
:101210003E49086008460068B0F5C87F04D3002046
:10122000384908703949086000E000BF00BF00205D
:101230003049086000BF36480078012858D10020A6
:10124000334908703348007832282AD004DC30282B
:1012500007D0312847D114E0332832D07A2842D140
:1012600040E001202C490880091D0880091D0880E4
:10127000091D08805A202849091D0880091D088079
:1012800035E0012024490880091D0880091D0880D7
:10129000091D08805A20204908801F490C31088008
:1012A00025E001201C490880091D0880091D0880CF
:1012B000091D08805A2018490880174908310880FC
:1012C00015E0012014490880091D0880091D0880C7
:1012D000091D08805A201049091D08800E490C314B
:1012E000088004E003E07A200A49087000BF00BFCC
:1012F0005EE70000000000205800002028000020C9
:10130000040000200F000020000C014030000020ED
:1013100013000020100000203404004010B54FF4EA
:1013200000410548FFF7B8F800210448FFF7E3F94A
:101330002420FFF7ACFE10BD000C01400038004037
:1013400000B587B001210820FFF70CF94FF40050D9
:10135000ADF8180002208DF81A0018208DF81B0037
:1013600006A91E48FFF702F84FF40040ADF8180038
:1013700002208DF81A0010208DF81B0006A91748CE
:10138000FEF7F4FF01218803FFF7DCF80020ADF839
:1013900004004FF48270ADF806000020ADF808009C
:1013A0000220ADF80A000120ADF80C004002ADF8B3
:1013B0000E003820ADF810000020ADF8120001A991
:1013C0000748FFF79AF9012260210548FFF780F9E5
:1013D00001210348FFF770F907B000BD000C014080
:1013E0000038004000B56048006804287ED007DC63
:1013F00068B101280FD0022847D003280AD186E01F
:101400000C282CD017285CD02228F7D194E001209A
:1014100055490860A6E00020FFF758FE53480068D1
:1014200007281BDA52480078C0B9504800680528E0
:1014300014DB50480068401C4E49086001204C49AC
:1014400008704C480068042808DB002049490860FF
:101450000C204549086001204549087082E0444855
:101460000078012806D10020434908806E20091D1C
:10147000088009E03D480068032805DD02203A495C
:10148000086001203A4908706CE00020FFF71EFE5A
:1014900036480068072813DA3548007880B93348A1
:1014A000006805280CDB01203149087017202E49FF
:1014B0000860E6203049091D08802F49091F08806F
:1014C00050E02B48007870B92A480068401C294930
:1014D000086046202849091D08808C20091F0880C3
:1014E0000120234908702348006800E033E0012808
:1014F0000CDD1E480068032808DD01201C49087027
:1015000003201949086000201A4908602AE00020D9
:10151000FFF7DCFD1548006807280CDA144800784E
:1015200048B912480068052805DB012010490870F9
:1015300022200D49086015E001200D4908700020A7
:101540000D490831088046200B49091F08800420F6
:101550000549086006E00648007810B90020FFF74A
:10156000B5FD00BF00BF00BD3800002028000020EE
:101570000F00002034000020380400409C150008B3
:10158000000000205800000028010008F4150008A1
:101590005800002080060000440100080000000000
:1015A0002058595A5F094142435F0900000000007A
:1015B0000A0000000800000002000000090000000E
:1015C0000200000000000000000000000000000019
:1015D000000000000000000000000000000000000B
:1015E00000000000010203040102030406070809C9
:0415F00002040608E3
:040000050800018965
:00000001FF
