:020000040800F2
:1000000010070020890100089101000893010008F1
:100010009501000897010008990100080000000000
:100020000000000000000000000000009B0100082C
:100030009D010008000000009F010008A1010008C8
:10004000A3010008A3010008A3010008A301000800
:10005000A3010008A30100086D0300089103000834
:10006000A3010008A3010008A301000891020008F1
:10007000B1020008D1020008F102000811030008D3
:100080003103000851030008A3010008A301000880
:10009000A3010008A3010008A3010008B1030008A0
:1000A000A3010008A3010008A3010008A3010008A0
:1000B000AD0C0008A3010008A3010008A30100087B
:1000C000A3010008A3010008A3010008A301000880
:1000D000850A00084D120008A3010008A3010008CA
:1000E000A3010008A3010008A301000800F002F822
:1000F00000F03AF80AA090E8000C82448344AAF188
:100100000107DA4501D100F02FF8AFF2090EBAE885
:100110000F0013F0010F18BFFB1A43F0010318473B
:1001200084220000A4220000103A24BF78C878C1BD
:10013000FAD8520724BF30C830C144BF04680C60ED
:10014000704700000023002400250026103A28BF35
:1001500078C1FBD8520728BF30C148BF0B60704739
:100160001FB51FBD10B510BD00F058F81146FFF7C0
:10017000F7FF01F025FA00F076F803B4FFF7F2FF7D
:1001800003BC00F07DF8000009488047094800479B
:10019000FEE7FEE7FEE7FEE7FEE7FEE7FEE7FEE737
:1001A000FEE7FEE704480549054A064B7047000094
:1001B0004D0C0008ED000008100100201007002081
:1001C00010030020100300204FF0000200B513467A
:1001D00094469646203922BFA0E80C50A0E80C5067
:1001E000B1F12001BFF4F7AF090728BFA0E80C5018
:1001F00048BF0CC05DF804EB890028BF40F8042B11
:1002000008BF704748BF20F8022B11F0804F18BF7D
:1002100000F8012B7047704770477047754600F033
:100220002BF8AE4605006946534620F00700854688
:1002300018B020B5FFF7B6FFBDE820404FF000062C
:100240004FF000074FF000084FF0000B21F00701BE
:10025000AC46ACE8C009ACE8C009ACE8C009ACE801
:10026000C0098D46704710B50446AFF300802046A4
:10027000BDE81040FFF781BF00487047AC00002088
:1002800001491820ABBEFEE7260002007047704708
:1002900010B50548006800F00F040348446020468C
:1002A000FFF7F5FF10BD000000000240704700009E
:1002B00010B505480068C0F30314200102494860E6
:1002C0002046FFF7F3FF10BD00000240704700001A
:1002D00010B505480068C0F30324200202494860B5
:1002E0002046FFF7F3FF10BD0000024070470000FA
:1002F00010B505480068C0F3033420030249486084
:100300002046FFF7F3FF10BD0000024070470000D9
:1003100010B505480068C0F3034420040249486052
:100320002046FFF7F3FF10BD0000024070470000B9
:1003300010B505480068C0F3035420050249486021
:100340002046FFF7F3FF10BD000002407047000099
:1003500010B505480068C0F30364200602494860F0
:100360002046FFF7F3FF10BD0000024010B501204A
:1003700000F034F840B10548006880F001000349FE
:100380000860012000F024F810BD000000000020EB
:1003900010B5022000F022F838B1022000F018F861
:1003A00002480068401C0149086010BD0800002098
:1003B00010B5802000F012F838B1802000F008F865
:1003C00002480068401C0149086010BD040000207C
:1003D00001490860704700001404014001460020F4
:1003E0000022074B1B6803EA0102054B14331B680C
:1003F0000B4013B10AB1012000E00020704700005B
:1004000000040140002123498279002A3AD00A469B
:10041000126803689A430B461A600A1D1268036843
:100420009A430B1D1A60027911440A6803681A4343
:100430000A60184A0832126803689A43154B083359
:100440001A601A1D126803689A43124B0C331A6023
:100450004279102A0ED11A1F126803681A430D4BF5
:1004600008331A601A1D126803681A43094B0C33CB
:100470001A600DE00749427911440A6803681A437B
:100480000A6005E0027911440A6803689A430A6029
:10049000704700000004014030B500228B071C0F9C
:1004A0000F2303FA04F20B4B8C1053F824309343C0
:1004B000084C8D1044F8253023468C1053F8243016
:1004C0008C07240F00FA04F42343024C8D1044F8E7
:1004D000253030BD080001402DE9F04102460025DD
:1004E0000026002000230024002791F803C00CF010
:1004F0000F0591F803C00CF0100CBCF1000F03D0F5
:1005000091F802C04CEA050591F800C0BCF1000F5B
:1005100031D0146800202BE04FF0010C0CFA00F3EE
:10052000B1F800C00CEA03069E4220D183004FF0D0
:100530000F0C0CFA03F7BC4305FA03FC4CEA040465
:1005400091F803C0BCF1280F06D14FF0010C0CFA52
:1005500000FCC2F814C00AE091F803C0BCF1480FD7
:1005600005D14FF0010C0CFA00FCC2F810C0401C81
:100570000828D1D31460B1F800C0BCF1FF0F34DDFE
:10058000546800202EE000F1080C4FF0010808FA32
:100590000CF3B1F800C00CEA03069E4221D183009F
:1005A0004FF00F0C0CFA03F7BC4305FA03FC4CEABE
:1005B000040491F803C0BCF1280F05D100F1080C28
:1005C00008FA0CF8C2F8148091F803C0BCF1480F87
:1005D00007D100F1080C4FF0010808FA0CF8C2F836
:1005E0001080401C0828CED35460BDE8F08102463C
:1005F0000020D3680B400BB1012000E000207047C1
:1006000041617047016170470AB1016100E04161D9
:100610007047000008B50121082000F083F94FF46D
:100620008050ADF8000002208DF8020010208DF8F7
:10063000030069461348FFF74FFF0121042000F033
:1006400071F92020ADF8000002208DF80200102082
:100650008DF8030069460C48FFF73EFF0121042096
:1006600000F060F94FF48070ADF8000002208DF8C2
:10067000020010208DF8030069460348FFF72CFFA5
:1006800008BD0000000C0140000801401FB5012119
:10069000092000F047F98020ADF80C0048208DF8C3
:1006A0000F0002208DF80E0003A91248FFF714FF77
:1006B00007210120FFF7F0FE8020019000208DF837
:1006C000080008208DF8090001208DF80A0001A813
:1006D000FFF798FE01208DF8030017208DF8000029
:1006E00002208DF80100684600F006F8172000F09F
:1006F000E8FE1FBD000C014070B5002100230F2251
:10070000C47804B3154C246804F4E064C4F5E064D0
:10071000210AC1F10403CA40447804FA03F1847841
:100720001440214309010E4C0678A155047804F0C9
:100730001F050124AC4005786D11AD0005F1E025E1
:10074000C5F8004109E0047804F01F050124AC401D
:10075000044D0678761145F8264070BD0CED00E09A
:1007600000E400E080E100E02DE9FC5F04460D4676
:1007700016461F46DDE90C89A4EB060AA5EB070B1C
:10078000504600F00DF80190584600F067F80090D0
:100790004B464146DDE9002000F0F0FEBDE8FC9F3D
:1007A0002DE9FE4F0646304601F0A2FC029030468D
:1007B00001F09EFC8246294601F05AFB054621487D
:1007C000006801F095FC8346304601F091FC0190F1
:1007D0001D480168019801F06FFD8246594601F0FD
:1007E000A9FB0746304601F083FC1749086017480B
:1007F0000168384601F094FC0190154801682846CC
:1008000001F08EFC009013480168029801F088FC0A
:100810008346009901F02CFB8246019901F028FBE8
:100820008046404601F048FC81460B48006800EBDA
:100830000904DC2C00DDDC24002C00DA0024204636
:10084000BDE8FE8F30000020400000202C0000207A
:100850002800002024000020380000202DE9FE4F51
:100860000646304601F044FC0290304601F040FC60
:100870008246294601F0FCFA0546304601F038FC74
:1008800082461B480168504601F016FD0746304677
:1008900001F02EFC1649086016480168384601F040
:1008A0003FFC834614480168284601F039FC01905A
:1008B00012480168029801F033FC0090019901F0A0
:1008C000D7FA8246594601F0D3FA8046404601F0F5
:1008D000F3FB81460A48006800EB0904DC2C00DDCC
:1008E000DC24002C00DA00242046BDE8FE8F000046
:1008F000440000202C0000202800002024000020BC
:100900003C00002029B1064AD2690243044BDA6157
:1009100004E0034AD2698243014BDA617047000068
:100920000010024029B1064A92690243044B9A61C1
:1009300004E0034A92698243014B9A6170470000C8
:100940000010024030B500210022002400232D4D6C
:100950006D6805F00C0121B1042905D0082923D1C7
:1009600005E0294D056022E0274D05601FE0254D7B
:100970006D6805F47012234D6D6805F4803402250E
:1009800005EB92421CB9214D554305600BE01D4D0E
:100990006D6805F400351DB11C4D5543056002E03E
:1009A000194D5543056002E0174D056000BF00BFBB
:1009B000144D6D6805F0F0010909154D6B5C056873
:1009C000DD4045600F4D6D6805F4E061090A104D8A
:1009D0006B5C4568DD4085600A4D6D6805F46051CB
:1009E000C90A0B4D6B5C4568DD40C560054D6D68FF
:1009F00005F44041890B074D6B5CC568B5FBF3F509
:100A0000056130BD0010024000127A0000093D006F
:100A100078000020880000201FB501210520FFF785
:100A200081FF0220ADF80C0048208DF80F00022055
:100A30008DF80E0003A91248FFF74EFD012100209A
:100A4000FFF72AFD0220019000208DF80800082001
:100A50008DF8090001208DF80A0001A8FFF7D2FCEB
:100A600001208DF8030007208DF8000002208DF88A
:100A700001006846FFF740FE072000F022FD1FBD81
:100A80000008014010B5134800F048F812490870FA
:100A90004FF400411148FFF7AAFD012808D1C10316
:100AA0000E48FFF7ADFD00210A4800F03AF810E0CB
:100AB000242000280BDB00F01F0201219140084A8E
:100AC000430942F82310BFF34F8FBFF36F8F00BF6E
:100AD00000BF10BD003800400C000020000C014099
:100AE00080E100E021B1028842F04002028004E08F
:100AF00002884FF6BF731A400280704730B5002459
:100B000000230C110125A540ABB21AB185881D4305
:100B1000858002E085889D43858030BD01468889B7
:100B200070478181704710B50022028802F441525B
:100B30000B884C8823438C882343CC8823430C891F
:100B400023434C8923438C892343CC8923431A4371
:100B50000280838B4FF2FF74234083830B8A0382CE
:100B600010BD10B500F002F810BD00000CB500205B
:100B7000019000903348006840F4803031490860AB
:100B800000BF3048006800F4003000900198401C1D
:100B90000190009818B90198B0F5A06FF1D12948DB
:100BA000006800F4003010B10120009001E0002046
:100BB00000900098012843D12348006840F01000BD
:100BC000214908600846006820F0030008600846D4
:100BD000006840F0020008601A48406819494860FF
:100BE0000846406848600846406840F480604860B5
:100BF0000846406820F47C1048600846406840F48D
:100C0000E81048600846006840F08070086000BF47
:100C10000C48006800F000700028F9D009484068CE
:100C200020F00300074948600846406840F0020091
:100C3000486000BF0348406800F00C000828F9D164
:100C40000CBD0000001002400020024010B5134807
:100C5000006840F0010011490860084640681049EA
:100C600008400E494860084600680E4908400B4994
:100C700008600846006820F4802008600846406844
:100C800020F4FE0048604FF41F008860FFF769FF02
:100C90004FF000600449086010BD000000100240E1
:100CA0000000FFF8FFFFF6FE08ED00E010B501219F
:100CB000880700F002F930B10120034908600121E2
:100CC000800700F0EBF810BD180000200EB50121E0
:100CD0000846FFF717FE44F25060ADF80000002010
:100CE000ADF802000D48008880B2ADF80400002085
:100CF000ADF806008DF8080069464FF0804000F01E
:100D000053FA0121880700F0CCF801221146900720
:100D100000F0E4F81C2000F0D4FB0EBD140000200D
:100D200000B589B001210420FFF7FCFD012104205A
:100D3000FFF7F8FD01210820FFF7F4FD0121084627
:100D4000FFF7F0FD4020ADF8200018208DF82300BB
:100D500002208DF8220008A94D48FFF7BDFB802036
:100D6000ADF8200018208DF8230002208DF8220015
:100D700008A94748FFF7B0FB0120ADF82000182074
:100D80008DF8230002208DF8220008A94148FFF7C2
:100D9000A3FB0220ADF8200018208DF823000220CC
:100DA0008DF8220008A93B48FFF796FB012102209D
:100DB000FFF7A8FD0020ADF8160040F2CF20ADF8F7
:100DC000140040F2F310ADF818000020ADF81A003E
:100DD0008DF81C0005A9304800F0E6F901212E48E5
:100DE00000F05FF86020ADF8040040F2E730ADF8A5
:100DF0000A000120ADF806000020ADF80C0001A9A2
:100E0000254800F075F80821234800F0BDF860205F
:100E1000ADF8040040F2E730ADF80A000120ADF86B
:100E200006000020ADF80C0001A91B4800F0B6F840
:100E30000821194800F004F96020ADF8040040F2E0
:100E4000E730ADF80A000120ADF806000020ADF84B
:100E50000C0001A9104800F001F908210E4800F02B
:100E60004DF96020ADF8040040F2E730ADF80A001B
:100E70000120ADF806000020ADF80C0001A90648DD
:100E800000F046F90821044800F080F909B000BDDF
:100E900000080140000C014000040040CA430282E7
:100EA000704721B1028842F00102028004E002880A
:100EB0004FF6FE731A400280704730B5024600209C
:100EC00000230024158A05EA0103958905EA010437
:100ED00013B10CB1012000E0002030BD1AB18389AC
:100EE0000B43838102E083898B4383817047000039
:100EF00070B5002400220023058C4FF6FE763540A5
:100F00000584028C8388048B4FF68F752C40B51EA8
:100F10002C400D882C43751E2A400D892A434D888C
:100F20002A43144DA8420BD0134DA84208D0134DAC
:100F3000A84205D0124DA84202D0124DA84213D1AA
:100F40004FF6F7752A404D892A434FF6FB752A4024
:100F50008D882A434FF6FF652B404FF6FF552B40F7
:100F60008D892B43CD892B4383800483CD8885864F
:100F7000028470BD002C014000340140004001405B
:100F800000440140004801400A460021018B4FF611
:100F9000F7731940114301837047000070B50024B6
:100FA00000220023058C4FF6EF7635400584028C35
:100FB0008388048B48F6FF752C404FF6FF452C4084
:100FC0000D884FF6FF7606EA05252C434FF6DF75B0
:100FD0002A400D8906EA05152A434D8806EA0515BB
:100FE0002A43154DA84202D0144DA8421DD14FF6F8
:100FF0007F752A404D894FF6FF7606EA05152A438C
:101000004FF6BF752A408D8806EA05152A434FF62C
:10101000FF352B404FF2FF752B408D8906EA850581
:101020002B43CD8906EA85052B4383800483CD8835
:101030000587028470BD0000002C0140003401408F
:101040000A460021018B4FF2FF7319404FF6FF73E0
:1010500003EA0223194301837047000070B500249E
:1010600000220023058C4FF6FF6635400584028C74
:101070008388848B4FF68F752C404FF6FC752C407F
:101080000D882C434FF6FF552A400D894FF6FF7609
:1010900006EA05252A434D8806EA05252A43154D0B
:1010A000A84202D0144DA8421DD14FF2FF752A402C
:1010B0004D894FF6FF7606EA05252A434FF6FF35A0
:1010C0002A408D8806EA05252A434EF6FF752B40F7
:1010D0004DF6FF752B408D8906EA05152B43CD890A
:1010E00006EA05152B4383808483CD888587028497
:1010F00070BD0000002C0140003401400A46002170
:10110000818B4FF6F77319401143818370470000BC
:1011100070B5002200230024058C4EF6FF76354082
:101120000584038C8488828B48F6FF752A404FF62D
:10113000FF452A400D884FF6FF7606EA05252A432B
:101140004DF6FF752B400D8906EA05352B434D887A
:1011500006EA05352B430B4DA84202D00A4DA842A2
:1011600008D14BF6FF752C408D894FF6FF7606EAC5
:1011700085152C4384808283CD88A0F84050038459
:1011800070BD0000002C0140003401400A460021DF
:10119000818B4FF2FF7319404FF6FF7303EA02236E
:1011A0001943818370470000002202881D4B98423A
:1011B0000ED01D4B98420BD0B0F1804F08D01B4B86
:1011C000984205D01A4B984202D01A4B984204D14B
:1011D0004FF68F731A404B881A43174B984207D02B
:1011E000164B984204D04FF6FF431A40CB881A435F
:1011F00002808B8883850B8803850A4B98420BD02D
:10120000094B984208D00E4B984205D00D4B98429E
:1012100002D00D4B984201D10B7A038601238382C1
:1012200070470000002C01400034014000040040E1
:1012300000080040000C0040001000400014004076
:1012400000400140004401400048014010B540F218
:101250002551084800F074F850B1064800F02CF908
:1012600005490870012005490870002004490870EC
:1012700010BD0000003801400D00002010000020CB
:101280000F00002000B587B0012144F20400FFF7F1
:1012900049FB4FF40070ADF8180003208DF81A00D8
:1012A00018208DF81B0006A91D48FFF715F94FF40B
:1012B0008060ADF8180004208DF81B0006A91848BE
:1012C000FFF70AF925208DF8040003208DF80500AA
:1012D0008DF8060001208DF8070001A8FFF70CFA31
:1012E0004FF4165002900020ADF80C00ADF80E003F
:1012F000ADF81000ADF814000C20ADF8120002A9F2
:10130000084800F06DF8012240F22551054800F030
:1013100041F80121034800F007F807B000BD0000C4
:10132000000801400038014021B1828942F4005296
:10133000828104E082894DF6FF731A4082817047F2
:1013400070B50246002400230025002040F66A16EE
:10135000B14200D100BFC1F3421501F01F030126C5
:1013600006FA03F3012D02D19689334006E0022DDF
:1013700002D1168A334001E0968A33400C120126CE
:1013800006FA04F41688344013B10CB1012000E0D1
:10139000002070BDF0B50346002400260025002083
:1013A00040F66A17B94200D100BF1846C1F3421493
:1013B00001F01F06012707FA06F5012C01D10C30B8
:1013C00004E0022C01D1103000E014301AB107689B
:1013D0002F43076002E00768AF430760F0BD0000DD
:1013E0002DE9F04786B005460E460024A24600BF10
:1013F000A1460027B08900B100BF2F462C8A4CF6C9
:10140000FF700440F08804432C82AC894EF6F31040
:101410000440B08831890843718908430443AC8192
:10142000AC8A4FF6FF400440B0890443AC8201A867
:10143000FFF788FA1F48874202D1DDF810A001E0CB
:10144000DDF80CA0A88900F4004040B10AEBCA0006
:1014500000EB0A1031684900B0FBF1F807E00AEB35
:10146000CA0000EB0A1031688900B0FBF1F8642073
:10147000B8FBF0F004012009642101FB1089A88960
:1014800000F4004040B1322000EBC900B0FBF1F0A5
:1014900000F00700044308E0322000EB091064214B
:1014A000B0FBF1F000F00F0004432C8106B0BDE862
:1014B000F08700000038014001468888C0F308002A
:1014C000704700280DDB00BF00BF00F01F020121A4
:1014D00091404209920002F1E022C2F8001100BFDF
:1014E00000BF70472DE9F04106460D4600270CE08D
:1014F00056F82400012807D1204600F0F9FD804667
:10150000394600F0B5FC0746641C082CF0DB0DB929
:10151000002708E0284600F0EBFD04462146384647
:1015200000F008FD07464FF08041384600F0F8FD16
:10153000044600F0C1FDBDE8F081000030B5014671
:101540000A460123072006E002EA0304034D45F89A
:1015500020405210401E0028F6DA30BD8C000020DA
:1015600001460020024605E051F82030012B00D151
:10157000521C401C0828F7DB1046704730B5012488
:101580000D4D2C802D1D2C802D1D2C802D1D2C8073
:10159000012903D1084D2D1D288002E009B9064D0F
:1015A0002880012B03D1044D08352A8003E013B9AC
:1015B000014D0C352A8030BD3404004070470000D6
:1015C00090B0342103A8FEF7FFFDFFF723F8FFF7E3
:1015D000A7FBFFF77BFBFFF755FEFFF757F8FFF779
:1015E0001BFAFFF7EBFF00F0ABF96FE1B8480068BA
:1015F0000128FAD1B7480078FFF7A0FFB648FFF7F7
:10160000AFFF83465946B448FFF76CFF054600F02C
:101610006FFD81464FF08041484600F081FD054650
:1016200000F04AFD824600F079F9002400F0DAF972
:10163000AA48007810B1012876D114E000224FF4B6
:101640008051A748FEF7E0FF00222021A548FEF7C1
:10165000DBFF00224FF48071A248FEF7D5FF012086
:101660009E4908702DE1A048007801287AD19F4852
:101670000078632877D010DC372875D006DC342852
:1016800073D0352872D0362871D1CDE038286FD08C
:1016900039286ED06128F7D129E077280CD006DCF4
:1016A000642832D0652865D07128EDD13DE07828D6
:1016B0000FD07A28E8D146E014208D4908608D4982
:1016C000086001208C4908608C4908608C490860DA
:1016D000BAE01420864908608649086000208649DF
:1016E000086086490860012085490860ACE0052053
:1016F0007F4908607F49086000207F490860012019
:101700007E4908607E4908609EE0052078490860AF
:10171000784908600120784908600020774908600E
:101720000120774908608FE0CAE006207049086010
:1017300014207049086001206F4908606F490860F3
:101740006F49086080E006206949086014206949F3
:1017500008600020684908606849086001206849FD
:10176000086071E074E013E021E028E03EE06AE008
:101770002DE04AE014205E49086006205D490860BB
:1017800001205D4908605D4908605D4908605BE0D3
:101790001420574908600620564908600020564921
:1017A0000860564908600120554908604CE05549D9
:1017B0005548006800F05CFB5349086044E051491B
:1017C0005148006800F078FD4F4908603CE04F4800
:1017D000006800F021FB074600224D4B00F036F96F
:1017E000054600F001F9494908602DE047480068C6
:1017F00000F012FB07460022454B00F023FA054695
:1018000000F0F2F8414908601EE04048006800F02E
:1018100003FB074600223E4B00F018F9054600F096
:10182000E3F83A4908600FE03848006800F0F4FA3D
:1018300007460022364B00F005FA054600F0D4F8C2
:101840003249086000E000BF00BF00202649087050
:101850002B48006850B32A480068401E2849086099
:101860007CB92648006824490968CDE90010294858
:101870000368294802681F4801681D480068FEF790
:1018800073FF0020244908602249086001221103E7
:101890001348FEF7B9FE012220211248FEF7B4FEDC
:1018A000012211020F48FEF7AFFE05E001231A46A0
:1018B00019461846FFF762FE00200849087000E04C
:1018C00000BF00BF00200249086000BF8EE6000094
:1018D000180000200C0000208C0000204800002090
:1018E000000C014000080140100000200D00002005
:1018F0005000002054000020580000205C00002010
:101900004C0000200000A0401C0000202C00002003
:101910000000E03F080000200400002010B54FF454
:1019200000410548FEF76EFE00210448FFF7F9F874
:101930002420FFF7C6FD10BD000C01400038004018
:1019400000B587B001210820FEF7ECFF4FF40050EE
:10195000ADF8180002208DF81A0018208DF81B0031
:1019600006A91E48FEF7B8FD4FF40040ADF8180078
:1019700002208DF81A0010208DF81B0006A91748C8
:10198000FEF7AAFD01218803FEF7BCFF0020ADF899
:1019900004004FF48270ADF806000020ADF8080096
:1019A0000220ADF80A000120ADF80C004002ADF8AD
:1019B0000E003820ADF810000020ADF8120001A98B
:1019C0000748FFF7B0F8012260210548FFF796F8B5
:1019D00001210348FFF786F807B000BD000C014065
:1019E000003800407047000021F00042A2F1605230
:1019F000B2F5801F01F0004328BFD2F17F6C0BD9F4
:101A00005FEA001C43EAC20242EB507018BF704705
:101A100028BF20F001007047B2F5801FBCBF1846F8
:101A200070474FEA410C1CF5001F02D2084600F037
:101A30003EBC70B500F0B2F800000089FFF7F6BFB9
:101A40004FF00040A0F580007047000010B591EA0B
:101A5000030F48BF83F0004300F1FC80841A71EB50
:101A6000030C05D2121943EB0C03001B61EB0C01B4
:101A7000DFF824E14FEA1154A4EB135C1EEA430F94
:101A800018BF9EEA445F73D023EA0E03DCF1200EF8
:101A900021EA045143F4801332D322FA0CFE10EBF6
:101AA0000E0023FA0CFE41EB0E01CCF1200E03FADE
:101AB0000EFE10EB0E0051F10001B1F5801FCCF1CC
:101AC000200E32D201EB045112FA0EF2BDE81040A2
:101AD00058BF7047401C38BF5FEA420218BF7047CA
:101AE000002814BF20F0010041F100014FEA41033A
:101AF00013F5001F38BF7047A1F1C04100F09CB83A
:101B0000012A43EB0302ACF1200CDCF11F0E32BFC3
:101B10004FF0000E23FA0CF310EB030041EB0451DD
:101B2000B4EB115FD0D0A1EB045101F5801149084D
:101B30005FEA300001EB04510ED350F1000038BFD2
:101B400012FA0EFE08D1BDE81040C9E7401C38BFAC
:101B50005FEA4202CAD1C3E7BDE810404FEA410341
:101B600013F5001F38BF7047A1F1C04100F064B801
:101B70009EEA445F08D011EA5E0FBDE8104004BF42
:101B800001F0004100207047BDE8104070B500F042
:101B900005F800BF64FBBE3E0000E0FF0EF1020E40
:101BA0002EF0030E5EF8046B364205D4012A43EB97
:101BB000030515F5001F12D8012841EB010C1CF597
:101BC000001F0CD80ED14FEAD17C15F5001F0CEB8D
:101BD0004C0C0CF1020C08BF4CEBD37C04E04FF032
:101BE000080C01E04FEAD37C0CEB4C0526FA05F615
:101BF00006F00706B6F1040C06D20EEB860CBDE823
:101C000070404CF0010C6047DFE80CF0090B020259
:101C10004FF000414FF00000A1F5002170BD1946C2
:101C20001046012851EB010418BFD4F5001484BFFD
:101C3000002001F0004170BD0808A0F500114FEA36
:101C40003101704710B591EA030F48BF83F000439C
:101C50003FF504AF841A71EB030C07D212198CF014
:101C6000004C43EB0C03001B61EB0C01DFF8A4E11B
:101C70004FEA1154A4EB135C1EEA430F18BF9EEA0F
:101C8000445F00F0B08023EA6E03524221EA04511F
:101C9000C3EB6E0338BF5B1EDCF1200E25D322FAA6
:101CA0000CFE10EB0E0043FA0CFE41EB0E01CCF1E2
:101CB000200E03FA0EFE10EB0E0051F10001CCF1E4
:101CC000200E29D412FA0EF201EB0451BDE81040A7
:101CD00058BF7047401C1CBFB2F1004F704700282E
:101CE0000CBF491C20F00100704712EB020E43EBC1
:101CF000030218BF4FF0010E4EEA4202ACF1200C75
:101D0000DCF11E0E54D943FA0CFE10EB0E0051F11B
:101D1000FF31CCF11E0ED5D50EF1010E12FA0EFEDA
:101D2000404141EB010101EB445C5FEA5C5C10D98E
:101D300010EBDE7001EB045138BFBEF1004FBDE87F
:101D4000104018BF704700280CBF491C20F001004C
:101D5000704730D24FEAD42C11F5001124F40064FE
:101D60001BD0B1FA81F20B3AA41AA41ED2F12003BF
:101D7000914030FA03F31943904001EBCC71002CF1
:101D800001EB0451BDE81040A8BF704701F1C0410C
:101D90004FF0000001F000417047B0FA80F310FAF4
:101DA00003F100D110BDE41A173C4805C90AE4E765
:101DB00001EB045110BD491001EB0451BDE8104086
:101DC0004FEA300002E04FF0000170474A0008BFC0
:101DD0000042F8D0B2F5001F28BF704701F0004163
:101DE0004FF0000070479EEA445F07D011EA5E0F93
:101DF000BDE8104004BF002100207047BDE810403E
:101E000070B5FFF7CBFE00BF40DFF63E83F0004128
:101E1000104670470000E0FF43004FEAD30C4FEA42
:101E20003C0C43401FBF40070CF1605113F0FE4FC4
:101E300070471CF0006F03D100200CF00041704788
:101E40000CF0004343EA507010B540EACC0000F0BB
:101E5000E8F900BF000000924FEA0001FFF7ECBE76
:101E60004FF000414FF00000A1F500217047000045
:101E700090EA010F48BF81F0004100F12482421A2C
:101E80003CBF801A89184FEAD0524FF07F4C1CEAB1
:101E9000410FA2EBD15318BF9CEA026F00F03B80C8
:101EA0004FF0004C4CEA00204CEA012121FA03FCDF
:101EB00010EB0C0C1ED202F1FF325FEA1C2040EB4B
:101EC000C25038BF70471CF07F0F4FEA400C18BF5C
:101ED000BCF17F4F38BF7047C3F12003994008BF62
:101EE00020F00100BCF17F4F38BF7047A0F1C04027
:101EF00000F0DDB94FEA3C00000A40EBC25028BFB9
:101F00001CF0FF0F4FEA400CE6D018BFBCF17F4F2A
:101F100038BF7047EAE79CEA026F05D010EA5C0F11
:101F200008BF00F00040704710B500F07AF900BF1C
:101F300064FBBE3E4FF47F0C1CEAD0121EBF1CEAAD
:101F4000D11392EA0C0F93EA0C0F00F0858090EA0F
:101F5000010F48BF42F4807240F4000C41F40000CD
:101F60002CF07F4120F07F4000B58142A2EB0302BC
:101F70000FF2081CACEB504EC0F100009EF800E0E0
:101F80004FEA4E0E00FB0EFC38BF49004FEA2C1CF6
:101F900002F5FA020CFB0EF34FEACE1E4FEA112CAB
:101FA0004FEAC1210EEB635E42EB22420EFB0CFCBA
:101FB0004FEA1C5300FB03114FEA112C4FEA013189
:101FC0000EFB0CFC4FEADC4C00FB0C11C14228BF9D
:101FD00009184CEB03335DF804EB10EB410143EBC4
:101FE000C250B2F57C0F38BF704729D512F0F00F00
:101FF0001CBF00F1C04000F00040704700818283A8
:102000008485868788898B8C8D8E8F919293959607
:1020100097999A9C9D9FA0A2A3A5A7A8AAACAEB091
:10202000B2B3B5B7B9BCBEC0C2C5C7C9CCCED1D496
:10203000D7D9DCDFE2E6E9ECF0F3F7FAFE000000C6
:102040004FEA400C0CF1807CBCF17E4F28BF7047FA
:10205000B0F1C04000F02BB990EA010F0CEAD113A7
:1020600048BF42F48072624538BF634507D213F41B
:102070007F0F16D080EA010000F00040704710B5D5
:1020800000F0CFF8097EFC3E00F005B880EA0100C0
:1020900000F00040704780EA010000F0004000F0CE
:1020A00006B912F47F0F04BF0248704780EA0100AE
:1020B00000F0FDB80000C07F41000B0ED3F19E027E
:1020C00008D950F400034FEA032323FA02F048BF73
:1020D0004042704710B500F0A4F800BF4992248038
:1020E000002070476FF0004282EA20007047000035
:1020F00010F0004148BF4042B0FA80F310FA03F2FA
:10210000C3F19D030BD051EAC35101EB12205306DA
:1021100038BF704700F1010008BF20F00100704790
:102120004FF47F0C1CEAD0121EBF1CEAD11392EAB6
:102130000C0F93EA0C0F00F0478090EA010F48BFA4
:1021400042F480724FF0004C4CEA00204CEA01212E
:1021500002EB0302A0FB0113A2F50002002918BF45
:1021600043F001035B0028BF4FEA330342EB2242F6
:102170005FEA132C4CEBC2502EBFBCEB436FB2F5A1
:102180007C0F70474FEA036CBCF1004F08BF20F092
:102190000100B2F57C0F38BF70470BD582F0FF020B
:1021A00012F5803FC8BF704700F1C040D8BF00F0B3
:1021B0000040704700F5000C5FEA4C0C48BF7047C8
:1021C000B0F1C04000F073B890EA010F0CEAD113EF
:1021D00048BF42F48072624538BF634504D280EA4A
:1021E000010000F00040704710B500F01AF800BF81
:1021F0008900013E00F007B800F009B85FEA410C21
:102200005FEA1C6C08D080EA010000F050B85FEA79
:10221000400C5FEA1C6CF6D14FF00040A0F5800046
:1022200070470EF1020E2EF0030E5EF8044B2442AE
:1022300004D44FEA4102B2F17F4F11D84FEA400374
:10224000B3F17F4F0CD80ED14FEAD07CB2F17F4F63
:102250000CEB4C0C0CF1020C08BF4CEBD17C04E0F5
:102260004FF0080C01E04FEAD17C0CEB4C0324FA50
:1022700003F404F00704B4F1040C06D20EEB840C52
:10228000BDE810404CF0010C6047DFE80CF0070897
:1022900002024FF00040A0F5800010BD0846420049
:1022A00018BFD2F1807288BF00F0004010BDFF213E
:1022B00041EAD050C005704790EA010F48BF81F055
:1022C00000413FF5DCAD421A04D882F00042A0EB99
:1022D000020011444FEAD0524FF07F4C1CEA410FEC
:1022E000A2EBD15318BF9CEA026F4AD04FF0004CCA
:1022F0004CEA00204CEA012121FA03FCB0EB0C0C63
:102300000FD412F0FE0F36D05FEA4C001DD500123C
:1023100040EBC25038BF70471CF03F0F18BF7047EA
:102320000BE0A2F101025FEA1C2040EBC25038BF73
:1023300070471CF07F0F18BF7047C3F1200399400E
:1023400014BF401E20F00100704780084FEA12239E
:1023500008BF7047B0FA80FCA2EB0C02CCF1280C4D
:1023600060FA0CF093EA122F04BF00EBC2507047E2
:102370004FEAC3707047130A5FEADC1008BF70476A
:10238000F6E79CEA026F04D010EA5C0F08BF002059
:10239000704710B5FFF745FF40DFF63E81F0004083
:1023A00070470000C4230008000000208C000000DB
:1023B00028010008502400088C000020840600003A
:1023C00044010008000000000000000000000000C0
:1023D0002000000000000000C80000000000000015
:1023E00000007042000020400000A0410000803F3B
:1023F000000040403200000078000000640000004F
:102400006400000000000000000000000000000068
:102410000000000014000000140000000100000093
:1024200001000000010000000200000003000000A5
:102430000100000002000000030000000000000096
:102440000102030401020304060708090204060846
:040000050800018965
:00000001FF
