:100000000C9434000C9451000C9451000C94510049
:100010000C9451000C9451000C9451000C94D80194
:100020000C9451000C9451000C9451000C94CE018E
:100030000C9451000C9451000C94C4010C94510088
:100040000C9451000C9451000C9451000C949E009F
:100050000C9451000C9451000C9451000C945100DC
:100060000C9451000C94510011241FBECFEFD8E026
:10007000DEBFCDBF11E0A0E0B1E0E2EDF3E002C0F1
:1000800005900D92A230B107D9F721E0A2E0B1E0CE
:1000900001C01D92A331B207E1F70E94B4010C9494
:1000A000E7010C940000F89414BC15BC16BC8CE756
:1000B00087BD84B5826084BD85B5836085BDEEE66D
:1000C000F0E0808182608083A0E8B0E01C92E1E8EB
:1000D000F0E0108210928500109284008DE38093EE
:1000E000890089E0809388001C928DE0808382E003
:1000F00080936F00A0EBB0E01C92E1EBF0E0108287
:100100001092B2008FE48093B3008C9182608C9344
:10011000808182608083E0E7F0E08081826080837C
:10012000789408951092C50087E68093C40086E015
:100130008093C20088EB8093C10008951F920F92B4
:100140000FB60F9211240F900FBE0F901F901895AD
:10015000809100018823F1F308958091020181309C
:1001600009F046C0E3E0F1E080E090E040E021915A
:100170003191082E02C0220F331F0A94E2F7420F7A
:1001800001968830910599F74830D9F038F442301B
:10019000E1F0443091F0413061F00895423229F1AC
:1001A00018F44132F1F00895413899F04238A9F03D
:1001B000089587E78093C600089581E68093C6007E
:1001C000089584E68093C600089588E78093C6006A
:1001D000089581E78093C60008958AE78093C6005A
:1001E000089585E68093C600089583E68093C6004F
:1001F0000895E3E0F1E083E191E011921192E817B4
:10020000F907D9F7109202010895AF92BF92CF92E9
:10021000DF92EF92FF920F931F93CF93DF9315B866
:100220000E94A8004A9949C081E08093020183E0BE
:1002300085B90E94A80009B185E085B90E94A8008F
:1002400019B186E085B90E94A80029B102FBAA2451
:10025000A0F8B12CC501880F991F22FBEE24E0F80D
:10026000F12CEE0CFF1CEE0CFF1CEE0CFF1CE82A20
:1002700014708E2D812B39F421E030E0309304018D
:100280002093030112C08A3039F481E090E090930A
:1002900006018093050111C08C3039F481E090E0B3
:1002A000909308018093070108C0863031F481E003
:1002B00090E090930A018093090115B80E94A8006C
:1002C0004B9947C081E08093020183E085B90E9489
:1002D000A80019B185E085B90E94A80089B113FB77
:1002E000CC24C0F8D12CCC0CDD1C83FB882780F9F2
:1002F000C82F80E0D82FCC0FDD1FCC0FDD1FCC29FD
:1003000086E085B90E94A80089B18870C82B39F4AD
:1003100081E090E090930C0180930B0112C0CA30F1
:1003200039F481E090E090930E0180930D0111C0AB
:10033000CC3039F481E090E09093100180930F016C
:1003400008C0C63031F481E090E0909312018093B0
:100350001101DF91CF911F910F91FF90EF90DF90EE
:10036000CF90BF90AF9008950E9492008FEF84B914
:1003700015B81AB88BB90E9453000E9405010E945B
:10038000AD000E94F900F9CF1F920F920FB60F92A5
:1003900011240F900FBE0F901F9018951F920F926F
:1003A0000FB60F9211240F900FBE0F901F9018954B
:1003B0001F920F920FB60F9211248F9381E08093BA
:1003C00000018F910F900FBE0F901F901895F89419
:0203D000FFCF5D
:0203D200010028
:00000001FF
